{
  "_format": "hh-sol-artifact-1",
  "contractName": "Holder",
  "sourceName": "contracts/Holder.sol",
  "abi": [
    {
      "inputs": [
        {
          "internalType": "address",
          "name": "_verifierAddress",
          "type": "address"
        }
      ],
      "stateMutability": "payable",
      "type": "constructor"
    },
    {
      "anonymous": false,
      "inputs": [
        {
          "indexed": false,
          "internalType": "address",
          "name": "claimer",
          "type": "address"
        }
      ],
      "name": "Claim",
      "type": "event"
    },
    {
      "inputs": [
        {
          "internalType": "bytes",
          "name": "_proof",
          "type": "bytes"
        },
        {
          "internalType": "bytes32[]",
          "name": "_publicInputs",
          "type": "bytes32[]"
        }
      ],
      "name": "claim",
      "outputs": [],
      "stateMutability": "payable",
      "type": "function"
    },
    {
      "inputs": [
        {
          "internalType": "address",
          "name": "_verifierAddress",
          "type": "address"
        }
      ],
      "name": "setNewVerifier",
      "outputs": [],
      "stateMutability": "nonpayable",
      "type": "function"
    },
    {
      "inputs": [],
      "name": "verifierAddress",
      "outputs": [
        {
          "internalType": "address",
          "name": "",
          "type": "address"
        }
      ],
      "stateMutability": "view",
      "type": "function"
    },
    {
      "stateMutability": "payable",
      "type": "receive"
    }
  ],
  "bytecode": "0x608060405261001461000f6100bd565b6100db565b6040516104a661014682396104a690f35b634e487b7160e01b600052604160045260246000fd5b90601f01601f191681019081106001600160401b0382111761005c57604052565b610025565b9061007561006e60405190565b928361003b565b565b6001600160a01b031690565b90565b6001600160a01b0381160361009757565b600080fd5b9050519061007582610086565b90602082820312610097576100839161009c565b6100836105ec803803806100d081610061565b9283398101906100a9565b6100759061013a565b61008390610077906001600160a01b031682565b610083906100e4565b610083906100f8565b9061011a61008361013692610101565b82546001600160a01b0319166001600160a01b03919091161790565b9055565b61007590600061010a56fe6080604052600436101561001b575b361561001957600080fd5b005b60003560e01c806318402cc71461004b57806318bdffbb1461004657638923586d0361000e576101d2565b6100ef565b610099565b6001600160a01b031690565b90565b6001600160a01b0381165b0361007157565b600080fd5b905035906100838261005f565b565b906020828203126100715761005c91610076565b34610071576100b16100ac366004610085565b61023f565b604051005b0390f35b600091031261007157565b61005c916008021c6001600160a01b031690565b9061005c91546100c5565b61005c6000806100d9565b34610071576100ff3660046100ba565b6100b661010a6100e4565b604051918291826001600160a01b03909116815260200190565b909182601f830112156100715781359167ffffffffffffffff831161007157602001926001830284011161007157565b909182601f830112156100715781359167ffffffffffffffff831161007157602001926020830284011161007157565b909160408284031261007157813567ffffffffffffffff811161007157836101ad918401610124565b929093602082013567ffffffffffffffff8111610071576101ce9201610154565b9091565b6100b16101e0366004610184565b929190916103a0565b61005c90610050906001600160a01b031682565b61005c906101e9565b61005c906101fd565b9061021f61005c61023b92610206565b82546001600160a01b0319166001600160a01b03919091161790565b9055565b61008390600061020f565b61005c90610050565b61005c905461024a565b634e487b7160e01b600052604160045260246000fd5b90601f01601f1916810190811067ffffffffffffffff82111761029557604052565b61025d565b80151561006a565b905051906100838261029a565b906020828203126100715761005c916102a2565b90826000939282370152565b91906102ed816102e6816102f79560209181520190565b80956102c3565b601f01601f191690565b0190565b9037565b8183529091602001916001600160fb1b03811161007157829160206102f792029384916102fb565b92906103449061005c9593604086019186830360008801526102cf565b9260208185039101526102ff565b6040513d6000823e3d90fd5b1561036557565b60405162461bcd60e51b81526020600482015260136024820152721d995c9a599a58d85d1a5bdb8819985a5b1959606a1b6044820152606490fd5b90926103dd6020936103e86103c06103bb6103bb6000610253565b610206565b9363ea50d0e4926103d060405190565b9889978896879660e01b90565b865260048601610327565b03915afa80156104345761040991600091610442575b50151560011461035e565b600080808061041730610206565b316104246103bb33610206565b828215610439575bf11561043457565b610352565b506108fc61042c565b610463915060203d8111610469575b61045b8183610273565b8101906102af565b386103fe565b503d61045156fea26469706673582212203b36767adee2f202682f16ab569d0d9e93f998dfc1c270304905c6cc8ce21b6864736f6c63430008130033",
  "linkReferences": {},
  "deployedLinkReferences": {}
}